{
  "contractName": "ArdinisToken",
  "abi": [
    {
      "inputs": [
        {
          "internalType": "uint256",
          "name": "_totalSupply",
          "type": "uint256"
        }
      ],
      "stateMutability": "nonpayable",
      "type": "constructor"
    },
    {
      "inputs": [],
      "name": "totalSupply",
      "outputs": [
        {
          "internalType": "uint256",
          "name": "",
          "type": "uint256"
        }
      ],
      "stateMutability": "view",
      "type": "function",
      "constant": true
    },
    {
      "inputs": [],
      "name": "totalCount",
      "outputs": [
        {
          "internalType": "uint256",
          "name": "",
          "type": "uint256"
        }
      ],
      "stateMutability": "view",
      "type": "function",
      "constant": true
    }
  ],
  "bytecode": "0x608060405234801561001057600080fd5b506040516101b23803806101b283398181016040528101906100329190610054565b80600081905550506100a7565b60008151905061004e81610090565b92915050565b60006020828403121561006a5761006961008b565b5b60006100788482850161003f565b91505092915050565b6000819050919050565b600080fd5b61009981610081565b81146100a457600080fd5b50565b60fd806100b56000396000f3fe6080604052348015600f57600080fd5b5060043610604f576000357c01000000000000000000000000000000000000000000000000000000009004806318160ddd14605457806334eafb1114606e575b600080fd5b605a6088565b6040516065919060a4565b60405180910390f35b6074608e565b604051607f919060a4565b60405180910390f35b60005481565b60008054905090565b609e8160bd565b82525050565b600060208201905060b760008301846097565b92915050565b600081905091905056fea2646970667358221220736cdcc68ef2c015928262b048937d337b38671eba8bcd2e7e9527ee854c014664736f6c63430008060033",
  "immutableReferences": {},
  "source": "// SPDX-License-Identifier: MIT\npragma solidity ^0.8.6;\n\ncontract ArdinisToken {\n\n    uint256 public totalSupply;\n\n    constructor(uint256 _totalSupply)\n    {\n        totalSupply = _totalSupply;\n    }\n\n    function totalCount() public view returns (uint256) {\n        return totalSupply;\n    }\n\n}",
  "sourcePath": "/home/asmbaty/workspace/code/dev/ethereum/workspace/token_sale/contracts/ArdinisToken.sol",
  "compiler": {
    "name": "solc",
    "version": "0.8.6+commit.11564f7e.Linux.g++"
  },
  "schemaVersion": "3.3.4",
  "updatedAt": "2021-07-06T19:39:49.050Z",
  "networkType": "ethereum",
  "devdoc": {
    "kind": "dev",
    "methods": {},
    "version": 1
  },
  "userdoc": {
    "kind": "user",
    "methods": {},
    "version": 1
  }
}